{
	"contracts/mainContract.sol": {
		"MainContract": {
			"abi": [
				{
					"inputs": [],
					"name": "getAge",
					"outputs": [
						{
							"internalType": "uint256",
							"name": "",
							"type": "uint256"
						}
					],
					"stateMutability": "pure",
					"type": "function"
				},
				{
					"inputs": [],
					"name": "getCar",
					"outputs": [
						{
							"internalType": "string",
							"name": "",
							"type": "string"
						}
					],
					"stateMutability": "pure",
					"type": "function"
				},
				{
					"inputs": [],
					"name": "getHeight",
					"outputs": [
						{
							"internalType": "uint256",
							"name": "",
							"type": "uint256"
						}
					],
					"stateMutability": "pure",
					"type": "function"
				},
				{
					"inputs": [],
					"name": "getName",
					"outputs": [
						{
							"internalType": "string",
							"name": "",
							"type": "string"
						}
					],
					"stateMutability": "pure",
					"type": "function"
				}
			],
			"devdoc": {
				"kind": "dev",
				"methods": {},
				"version": 1
			},
			"evm": {
				"assembly": "    /* \"contracts/mainContract.sol\":341:1337  contract MainContract {\r... */\n  mstore(0x40, 0x80)\n  callvalue\n  dup1\n  iszero\n  tag_1\n  jumpi\n  0x00\n  dup1\n  revert\ntag_1:\n  pop\n  dataSize(sub_0)\n  dup1\n  dataOffset(sub_0)\n  0x00\n  codecopy\n  0x00\n  return\nstop\n\nsub_0: assembly {\n        /* \"contracts/mainContract.sol\":341:1337  contract MainContract {\r... */\n      mstore(0x40, 0x80)\n      callvalue\n      dup1\n      iszero\n      tag_1\n      jumpi\n      0x00\n      dup1\n      revert\n    tag_1:\n      pop\n      jumpi(tag_2, lt(calldatasize, 0x04))\n      shr(0xe0, calldataload(0x00))\n      dup1\n      0x17d7de7c\n      eq\n      tag_3\n      jumpi\n      dup1\n      0x19efb11d\n      eq\n      tag_4\n      jumpi\n      dup1\n      0x967e6e65\n      eq\n      tag_5\n      jumpi\n      dup1\n      0xca04c834\n      eq\n      tag_6\n      jumpi\n    tag_2:\n      0x00\n      dup1\n      revert\n        /* \"contracts/mainContract.sol\":1059:1192  function getName() external pure returns(string memory) {\r... */\n    tag_3:\n      tag_7\n      tag_8\n      jump\t// in\n    tag_7:\n      mload(0x40)\n      tag_9\n      swap2\n      swap1\n      tag_10\n      jump\t// in\n    tag_9:\n      mload(0x40)\n      dup1\n      swap2\n      sub\n      swap1\n      return\n        /* \"contracts/mainContract.sol\":921:1049  function getHeight() external pure returns(uint) {\r... */\n    tag_4:\n      tag_11\n      tag_12\n      jump\t// in\n    tag_11:\n      mload(0x40)\n      tag_13\n      swap2\n      swap1\n      tag_14\n      jump\t// in\n    tag_13:\n      mload(0x40)\n      dup1\n      swap2\n      sub\n      swap1\n      return\n        /* \"contracts/mainContract.sol\":789:911  function getAge() external pure returns(uint) {\r... */\n    tag_5:\n      tag_15\n      tag_16\n      jump\t// in\n    tag_15:\n      mload(0x40)\n      tag_17\n      swap2\n      swap1\n      tag_14\n      jump\t// in\n    tag_17:\n      mload(0x40)\n      dup1\n      swap2\n      sub\n      swap1\n      return\n        /* \"contracts/mainContract.sol\":1203:1334  function getCar() external pure returns(string memory) {\r... */\n    tag_6:\n      tag_18\n      tag_19\n      jump\t// in\n    tag_18:\n      mload(0x40)\n      tag_20\n      swap2\n      swap1\n      tag_10\n      jump\t// in\n    tag_20:\n      mload(0x40)\n      dup1\n      swap2\n      sub\n      swap1\n      return\n        /* \"contracts/mainContract.sol\":1059:1192  function getName() external pure returns(string memory) {\r... */\n    tag_8:\n        /* \"contracts/mainContract.sol\":1100:1113  string memory */\n      0x60\n        /* \"contracts/mainContract.sol\":528:570  0xDA0bab807633f07f013f94DD0E6A4F96F8742B53 */\n      0xda0bab807633f07f013f94dd0e6a4f96f8742b53\n        /* \"contracts/mainContract.sol\":1133:1184  IDataContractInterface(DataContractAddress).getName */\n      0xffffffffffffffffffffffffffffffffffffffff\n      and\n      0x17d7de7c\n        /* \"contracts/mainContract.sol\":1133:1186  IDataContractInterface(DataContractAddress).getName() */\n      mload(0x40)\n      dup2\n      0xffffffff\n      and\n      0xe0\n      shl\n      dup2\n      mstore\n      0x04\n      add\n      0x00\n      mload(0x40)\n      dup1\n      dup4\n      sub\n      dup2\n      dup7\n      dup1\n      extcodesize\n      iszero\n      dup1\n      iszero\n      tag_22\n      jumpi\n      0x00\n      dup1\n      revert\n    tag_22:\n      pop\n      gas\n      staticcall\n      iszero\n      dup1\n      iszero\n      tag_24\n      jumpi\n      returndatasize\n      0x00\n      dup1\n      returndatacopy\n      revert(0x00, returndatasize)\n    tag_24:\n      pop\n      pop\n      pop\n      pop\n      mload(0x40)\n      returndatasize\n      0x00\n      dup3\n      returndatacopy\n      returndatasize\n      not(0x1f)\n      0x1f\n      dup3\n      add\n      and\n      dup3\n      add\n      dup1\n      0x40\n      mstore\n      pop\n      dup2\n      add\n      swap1\n      tag_25\n      swap2\n      swap1\n      tag_26\n      jump\t// in\n    tag_25:\n        /* \"contracts/mainContract.sol\":1126:1186  return IDataContractInterface(DataContractAddress).getName() */\n      swap1\n      pop\n        /* \"contracts/mainContract.sol\":1059:1192  function getName() external pure returns(string memory) {\r... */\n      swap1\n      jump\t// out\n        /* \"contracts/mainContract.sol\":921:1049  function getHeight() external pure returns(uint) {\r... */\n    tag_12:\n        /* \"contracts/mainContract.sol\":964:968  uint */\n      0x00\n        /* \"contracts/mainContract.sol\":528:570  0xDA0bab807633f07f013f94DD0E6A4F96F8742B53 */\n      0xda0bab807633f07f013f94dd0e6a4f96f8742b53\n        /* \"contracts/mainContract.sol\":988:1041  IDataContractInterface(DataContractAddress).getHeight */\n      0xffffffffffffffffffffffffffffffffffffffff\n      and\n      0x19efb11d\n        /* \"contracts/mainContract.sol\":988:1043  IDataContractInterface(DataContractAddress).getHeight() */\n      mload(0x40)\n      dup2\n      0xffffffff\n      and\n      0xe0\n      shl\n      dup2\n      mstore\n      0x04\n      add\n      0x20\n      mload(0x40)\n      dup1\n      dup4\n      sub\n      dup2\n      dup7\n      dup1\n      extcodesize\n      iszero\n      dup1\n      iszero\n      tag_28\n      jumpi\n      0x00\n      dup1\n      revert\n    tag_28:\n      pop\n      gas\n      staticcall\n      iszero\n      dup1\n      iszero\n      tag_30\n      jumpi\n      returndatasize\n      0x00\n      dup1\n      returndatacopy\n      revert(0x00, returndatasize)\n    tag_30:\n      pop\n      pop\n      pop\n      pop\n      mload(0x40)\n      returndatasize\n      not(0x1f)\n      0x1f\n      dup3\n      add\n      and\n      dup3\n      add\n      dup1\n      0x40\n      mstore\n      pop\n      dup2\n      add\n      swap1\n      tag_31\n      swap2\n      swap1\n      tag_32\n      jump\t// in\n    tag_31:\n        /* \"contracts/mainContract.sol\":981:1043  return IDataContractInterface(DataContractAddress).getHeight() */\n      swap1\n      pop\n        /* \"contracts/mainContract.sol\":921:1049  function getHeight() external pure returns(uint) {\r... */\n      swap1\n      jump\t// out\n        /* \"contracts/mainContract.sol\":789:911  function getAge() external pure returns(uint) {\r... */\n    tag_16:\n        /* \"contracts/mainContract.sol\":829:833  uint */\n      0x00\n        /* \"contracts/mainContract.sol\":528:570  0xDA0bab807633f07f013f94DD0E6A4F96F8742B53 */\n      0xda0bab807633f07f013f94dd0e6a4f96f8742b53\n        /* \"contracts/mainContract.sol\":853:903  IDataContractInterface(DataContractAddress).getAge */\n      0xffffffffffffffffffffffffffffffffffffffff\n      and\n      0x967e6e65\n        /* \"contracts/mainContract.sol\":853:905  IDataContractInterface(DataContractAddress).getAge() */\n      mload(0x40)\n      dup2\n      0xffffffff\n      and\n      0xe0\n      shl\n      dup2\n      mstore\n      0x04\n      add\n      0x20\n      mload(0x40)\n      dup1\n      dup4\n      sub\n      dup2\n      dup7\n      dup1\n      extcodesize\n      iszero\n      dup1\n      iszero\n      tag_34\n      jumpi\n      0x00\n      dup1\n      revert\n    tag_34:\n      pop\n      gas\n      staticcall\n      iszero\n      dup1\n      iszero\n      tag_36\n      jumpi\n      returndatasize\n      0x00\n      dup1\n      returndatacopy\n      revert(0x00, returndatasize)\n    tag_36:\n      pop\n      pop\n      pop\n      pop\n      mload(0x40)\n      returndatasize\n      not(0x1f)\n      0x1f\n      dup3\n      add\n      and\n      dup3\n      add\n      dup1\n      0x40\n      mstore\n      pop\n      dup2\n      add\n      swap1\n      tag_37\n      swap2\n      swap1\n      tag_32\n      jump\t// in\n    tag_37:\n        /* \"contracts/mainContract.sol\":846:905  return IDataContractInterface(DataContractAddress).getAge() */\n      swap1\n      pop\n        /* \"contracts/mainContract.sol\":789:911  function getAge() external pure returns(uint) {\r... */\n      swap1\n      jump\t// out\n        /* \"contracts/mainContract.sol\":1203:1334  function getCar() external pure returns(string memory) {\r... */\n    tag_19:\n        /* \"contracts/mainContract.sol\":1243:1256  string memory */\n      0x60\n        /* \"contracts/mainContract.sol\":528:570  0xDA0bab807633f07f013f94DD0E6A4F96F8742B53 */\n      0xda0bab807633f07f013f94dd0e6a4f96f8742b53\n        /* \"contracts/mainContract.sol\":1276:1326  IDataContractInterface(DataContractAddress).getCar */\n      0xffffffffffffffffffffffffffffffffffffffff\n      and\n      0xca04c834\n        /* \"contracts/mainContract.sol\":1276:1328  IDataContractInterface(DataContractAddress).getCar() */\n      mload(0x40)\n      dup2\n      0xffffffff\n      and\n      0xe0\n      shl\n      dup2\n      mstore\n      0x04\n      add\n      0x00\n      mload(0x40)\n      dup1\n      dup4\n      sub\n      dup2\n      dup7\n      dup1\n      extcodesize\n      iszero\n      dup1\n      iszero\n      tag_39\n      jumpi\n      0x00\n      dup1\n      revert\n    tag_39:\n      pop\n      gas\n      staticcall\n      iszero\n      dup1\n      iszero\n      tag_41\n      jumpi\n      returndatasize\n      0x00\n      dup1\n      returndatacopy\n      revert(0x00, returndatasize)\n    tag_41:\n      pop\n      pop\n      pop\n      pop\n      mload(0x40)\n      returndatasize\n      0x00\n      dup3\n      returndatacopy\n      returndatasize\n      not(0x1f)\n      0x1f\n      dup3\n      add\n      and\n      dup3\n      add\n      dup1\n      0x40\n      mstore\n      pop\n      dup2\n      add\n      swap1\n      tag_42\n      swap2\n      swap1\n      tag_26\n      jump\t// in\n    tag_42:\n        /* \"contracts/mainContract.sol\":1269:1328  return IDataContractInterface(DataContractAddress).getCar() */\n      swap1\n      pop\n        /* \"contracts/mainContract.sol\":1203:1334  function getCar() external pure returns(string memory) {\r... */\n      swap1\n      jump\t// out\n        /* \"#utility.yul\":7:428   */\n    tag_44:\n        /* \"#utility.yul\":96:101   */\n      0x00\n        /* \"#utility.yul\":121:187   */\n      tag_46\n        /* \"#utility.yul\":137:186   */\n      tag_47\n        /* \"#utility.yul\":179:185   */\n      dup5\n        /* \"#utility.yul\":137:186   */\n      tag_48\n      jump\t// in\n    tag_47:\n        /* \"#utility.yul\":121:187   */\n      tag_49\n      jump\t// in\n    tag_46:\n        /* \"#utility.yul\":112:187   */\n      swap1\n      pop\n        /* \"#utility.yul\":210:216   */\n      dup3\n        /* \"#utility.yul\":203:208   */\n      dup2\n        /* \"#utility.yul\":196:217   */\n      mstore\n        /* \"#utility.yul\":248:252   */\n      0x20\n        /* \"#utility.yul\":241:246   */\n      dup2\n        /* \"#utility.yul\":237:253   */\n      add\n        /* \"#utility.yul\":286:289   */\n      dup5\n        /* \"#utility.yul\":277:283   */\n      dup5\n        /* \"#utility.yul\":272:275   */\n      dup5\n        /* \"#utility.yul\":268:284   */\n      add\n        /* \"#utility.yul\":265:290   */\n      gt\n        /* \"#utility.yul\":262:374   */\n      iszero\n      tag_50\n      jumpi\n        /* \"#utility.yul\":293:372   */\n      tag_51\n      tag_52\n      jump\t// in\n    tag_51:\n        /* \"#utility.yul\":262:374   */\n    tag_50:\n        /* \"#utility.yul\":383:422   */\n      tag_53\n        /* \"#utility.yul\":415:421   */\n      dup5\n        /* \"#utility.yul\":410:413   */\n      dup3\n        /* \"#utility.yul\":405:408   */\n      dup6\n        /* \"#utility.yul\":383:422   */\n      tag_54\n      jump\t// in\n    tag_53:\n        /* \"#utility.yul\":102:428   */\n      pop\n        /* \"#utility.yul\":7:428   */\n      swap4\n      swap3\n      pop\n      pop\n      pop\n      jump\t// out\n        /* \"#utility.yul\":448:803   */\n    tag_55:\n        /* \"#utility.yul\":515:520   */\n      0x00\n        /* \"#utility.yul\":564:567   */\n      dup3\n        /* \"#utility.yul\":557:561   */\n      0x1f\n        /* \"#utility.yul\":549:555   */\n      dup4\n        /* \"#utility.yul\":545:562   */\n      add\n        /* \"#utility.yul\":541:568   */\n      slt\n        /* \"#utility.yul\":531:653   */\n      tag_57\n      jumpi\n        /* \"#utility.yul\":572:651   */\n      tag_58\n      tag_59\n      jump\t// in\n    tag_58:\n        /* \"#utility.yul\":531:653   */\n    tag_57:\n        /* \"#utility.yul\":682:688   */\n      dup2\n        /* \"#utility.yul\":676:689   */\n      mload\n        /* \"#utility.yul\":707:797   */\n      tag_60\n        /* \"#utility.yul\":793:796   */\n      dup5\n        /* \"#utility.yul\":785:791   */\n      dup3\n        /* \"#utility.yul\":778:782   */\n      0x20\n        /* \"#utility.yul\":770:776   */\n      dup7\n        /* \"#utility.yul\":766:783   */\n      add\n        /* \"#utility.yul\":707:797   */\n      tag_44\n      jump\t// in\n    tag_60:\n        /* \"#utility.yul\":698:797   */\n      swap2\n      pop\n        /* \"#utility.yul\":521:803   */\n      pop\n        /* \"#utility.yul\":448:803   */\n      swap3\n      swap2\n      pop\n      pop\n      jump\t// out\n        /* \"#utility.yul\":809:952   */\n    tag_61:\n        /* \"#utility.yul\":866:871   */\n      0x00\n        /* \"#utility.yul\":897:903   */\n      dup2\n        /* \"#utility.yul\":891:904   */\n      mload\n        /* \"#utility.yul\":882:904   */\n      swap1\n      pop\n        /* \"#utility.yul\":913:946   */\n      tag_63\n        /* \"#utility.yul\":940:945   */\n      dup2\n        /* \"#utility.yul\":913:946   */\n      tag_64\n      jump\t// in\n    tag_63:\n        /* \"#utility.yul\":809:952   */\n      swap3\n      swap2\n      pop\n      pop\n      jump\t// out\n        /* \"#utility.yul\":958:1482   */\n    tag_26:\n        /* \"#utility.yul\":1038:1044   */\n      0x00\n        /* \"#utility.yul\":1087:1089   */\n      0x20\n        /* \"#utility.yul\":1075:1084   */\n      dup3\n        /* \"#utility.yul\":1066:1073   */\n      dup5\n        /* \"#utility.yul\":1062:1085   */\n      sub\n        /* \"#utility.yul\":1058:1090   */\n      slt\n        /* \"#utility.yul\":1055:1174   */\n      iszero\n      tag_66\n      jumpi\n        /* \"#utility.yul\":1093:1172   */\n      tag_67\n      tag_68\n      jump\t// in\n    tag_67:\n        /* \"#utility.yul\":1055:1174   */\n    tag_66:\n        /* \"#utility.yul\":1234:1235   */\n      0x00\n        /* \"#utility.yul\":1223:1232   */\n      dup3\n        /* \"#utility.yul\":1219:1236   */\n      add\n        /* \"#utility.yul\":1213:1237   */\n      mload\n        /* \"#utility.yul\":1264:1282   */\n      0xffffffffffffffff\n        /* \"#utility.yul\":1256:1262   */\n      dup2\n        /* \"#utility.yul\":1253:1283   */\n      gt\n        /* \"#utility.yul\":1250:1367   */\n      iszero\n      tag_69\n      jumpi\n        /* \"#utility.yul\":1286:1365   */\n      tag_70\n      tag_71\n      jump\t// in\n    tag_70:\n        /* \"#utility.yul\":1250:1367   */\n    tag_69:\n        /* \"#utility.yul\":1391:1465   */\n      tag_72\n        /* \"#utility.yul\":1457:1464   */\n      dup5\n        /* \"#utility.yul\":1448:1454   */\n      dup3\n        /* \"#utility.yul\":1437:1446   */\n      dup6\n        /* \"#utility.yul\":1433:1455   */\n      add\n        /* \"#utility.yul\":1391:1465   */\n      tag_55\n      jump\t// in\n    tag_72:\n        /* \"#utility.yul\":1381:1465   */\n      swap2\n      pop\n        /* \"#utility.yul\":1184:1475   */\n      pop\n        /* \"#utility.yul\":958:1482   */\n      swap3\n      swap2\n      pop\n      pop\n      jump\t// out\n        /* \"#utility.yul\":1488:1839   */\n    tag_32:\n        /* \"#utility.yul\":1558:1564   */\n      0x00\n        /* \"#utility.yul\":1607:1609   */\n      0x20\n        /* \"#utility.yul\":1595:1604   */\n      dup3\n        /* \"#utility.yul\":1586:1593   */\n      dup5\n        /* \"#utility.yul\":1582:1605   */\n      sub\n        /* \"#utility.yul\":1578:1610   */\n      slt\n        /* \"#utility.yul\":1575:1694   */\n      iszero\n      tag_74\n      jumpi\n        /* \"#utility.yul\":1613:1692   */\n      tag_75\n      tag_68\n      jump\t// in\n    tag_75:\n        /* \"#utility.yul\":1575:1694   */\n    tag_74:\n        /* \"#utility.yul\":1733:1734   */\n      0x00\n        /* \"#utility.yul\":1758:1822   */\n      tag_76\n        /* \"#utility.yul\":1814:1821   */\n      dup5\n        /* \"#utility.yul\":1805:1811   */\n      dup3\n        /* \"#utility.yul\":1794:1803   */\n      dup6\n        /* \"#utility.yul\":1790:1812   */\n      add\n        /* \"#utility.yul\":1758:1822   */\n      tag_61\n      jump\t// in\n    tag_76:\n        /* \"#utility.yul\":1748:1822   */\n      swap2\n      pop\n        /* \"#utility.yul\":1704:1832   */\n      pop\n        /* \"#utility.yul\":1488:1839   */\n      swap3\n      swap2\n      pop\n      pop\n      jump\t// out\n        /* \"#utility.yul\":1845:2209   */\n    tag_77:\n        /* \"#utility.yul\":1933:1936   */\n      0x00\n        /* \"#utility.yul\":1961:2000   */\n      tag_79\n        /* \"#utility.yul\":1994:1999   */\n      dup3\n        /* \"#utility.yul\":1961:2000   */\n      tag_80\n      jump\t// in\n    tag_79:\n        /* \"#utility.yul\":2016:2087   */\n      tag_81\n        /* \"#utility.yul\":2080:2086   */\n      dup2\n        /* \"#utility.yul\":2075:2078   */\n      dup6\n        /* \"#utility.yul\":2016:2087   */\n      tag_82\n      jump\t// in\n    tag_81:\n        /* \"#utility.yul\":2009:2087   */\n      swap4\n      pop\n        /* \"#utility.yul\":2096:2148   */\n      tag_83\n        /* \"#utility.yul\":2141:2147   */\n      dup2\n        /* \"#utility.yul\":2136:2139   */\n      dup6\n        /* \"#utility.yul\":2129:2133   */\n      0x20\n        /* \"#utility.yul\":2122:2127   */\n      dup7\n        /* \"#utility.yul\":2118:2134   */\n      add\n        /* \"#utility.yul\":2096:2148   */\n      tag_54\n      jump\t// in\n    tag_83:\n        /* \"#utility.yul\":2173:2202   */\n      tag_84\n        /* \"#utility.yul\":2195:2201   */\n      dup2\n        /* \"#utility.yul\":2173:2202   */\n      tag_85\n      jump\t// in\n    tag_84:\n        /* \"#utility.yul\":2168:2171   */\n      dup5\n        /* \"#utility.yul\":2164:2203   */\n      add\n        /* \"#utility.yul\":2157:2203   */\n      swap2\n      pop\n        /* \"#utility.yul\":1937:2209   */\n      pop\n        /* \"#utility.yul\":1845:2209   */\n      swap3\n      swap2\n      pop\n      pop\n      jump\t// out\n        /* \"#utility.yul\":2215:2333   */\n    tag_86:\n        /* \"#utility.yul\":2302:2326   */\n      tag_88\n        /* \"#utility.yul\":2320:2325   */\n      dup2\n        /* \"#utility.yul\":2302:2326   */\n      tag_89\n      jump\t// in\n    tag_88:\n        /* \"#utility.yul\":2297:2300   */\n      dup3\n        /* \"#utility.yul\":2290:2327   */\n      mstore\n        /* \"#utility.yul\":2215:2333   */\n      pop\n      pop\n      jump\t// out\n        /* \"#utility.yul\":2339:2652   */\n    tag_10:\n        /* \"#utility.yul\":2452:2456   */\n      0x00\n        /* \"#utility.yul\":2490:2492   */\n      0x20\n        /* \"#utility.yul\":2479:2488   */\n      dup3\n        /* \"#utility.yul\":2475:2493   */\n      add\n        /* \"#utility.yul\":2467:2493   */\n      swap1\n      pop\n        /* \"#utility.yul\":2539:2548   */\n      dup2\n        /* \"#utility.yul\":2533:2537   */\n      dup2\n        /* \"#utility.yul\":2529:2549   */\n      sub\n        /* \"#utility.yul\":2525:2526   */\n      0x00\n        /* \"#utility.yul\":2514:2523   */\n      dup4\n        /* \"#utility.yul\":2510:2527   */\n      add\n        /* \"#utility.yul\":2503:2550   */\n      mstore\n        /* \"#utility.yul\":2567:2645   */\n      tag_91\n        /* \"#utility.yul\":2640:2644   */\n      dup2\n        /* \"#utility.yul\":2631:2637   */\n      dup5\n        /* \"#utility.yul\":2567:2645   */\n      tag_77\n      jump\t// in\n    tag_91:\n        /* \"#utility.yul\":2559:2645   */\n      swap1\n      pop\n        /* \"#utility.yul\":2339:2652   */\n      swap3\n      swap2\n      pop\n      pop\n      jump\t// out\n        /* \"#utility.yul\":2658:2880   */\n    tag_14:\n        /* \"#utility.yul\":2751:2755   */\n      0x00\n        /* \"#utility.yul\":2789:2791   */\n      0x20\n        /* \"#utility.yul\":2778:2787   */\n      dup3\n        /* \"#utility.yul\":2774:2792   */\n      add\n        /* \"#utility.yul\":2766:2792   */\n      swap1\n      pop\n        /* \"#utility.yul\":2802:2873   */\n      tag_93\n        /* \"#utility.yul\":2870:2871   */\n      0x00\n        /* \"#utility.yul\":2859:2868   */\n      dup4\n        /* \"#utility.yul\":2855:2872   */\n      add\n        /* \"#utility.yul\":2846:2852   */\n      dup5\n        /* \"#utility.yul\":2802:2873   */\n      tag_86\n      jump\t// in\n    tag_93:\n        /* \"#utility.yul\":2658:2880   */\n      swap3\n      swap2\n      pop\n      pop\n      jump\t// out\n        /* \"#utility.yul\":2886:3015   */\n    tag_49:\n        /* \"#utility.yul\":2920:2926   */\n      0x00\n        /* \"#utility.yul\":2947:2967   */\n      tag_95\n      tag_96\n      jump\t// in\n    tag_95:\n        /* \"#utility.yul\":2937:2967   */\n      swap1\n      pop\n        /* \"#utility.yul\":2976:3009   */\n      tag_97\n        /* \"#utility.yul\":3004:3008   */\n      dup3\n        /* \"#utility.yul\":2996:3002   */\n      dup3\n        /* \"#utility.yul\":2976:3009   */\n      tag_98\n      jump\t// in\n    tag_97:\n        /* \"#utility.yul\":2886:3015   */\n      swap2\n      swap1\n      pop\n      jump\t// out\n        /* \"#utility.yul\":3021:3096   */\n    tag_96:\n        /* \"#utility.yul\":3054:3060   */\n      0x00\n        /* \"#utility.yul\":3087:3089   */\n      0x40\n        /* \"#utility.yul\":3081:3090   */\n      mload\n        /* \"#utility.yul\":3071:3090   */\n      swap1\n      pop\n        /* \"#utility.yul\":3021:3096   */\n      swap1\n      jump\t// out\n        /* \"#utility.yul\":3102:3410   */\n    tag_48:\n        /* \"#utility.yul\":3164:3168   */\n      0x00\n        /* \"#utility.yul\":3254:3272   */\n      0xffffffffffffffff\n        /* \"#utility.yul\":3246:3252   */\n      dup3\n        /* \"#utility.yul\":3243:3273   */\n      gt\n        /* \"#utility.yul\":3240:3296   */\n      iszero\n      tag_101\n      jumpi\n        /* \"#utility.yul\":3276:3294   */\n      tag_102\n      tag_103\n      jump\t// in\n    tag_102:\n        /* \"#utility.yul\":3240:3296   */\n    tag_101:\n        /* \"#utility.yul\":3314:3343   */\n      tag_104\n        /* \"#utility.yul\":3336:3342   */\n      dup3\n        /* \"#utility.yul\":3314:3343   */\n      tag_85\n      jump\t// in\n    tag_104:\n        /* \"#utility.yul\":3306:3343   */\n      swap1\n      pop\n        /* \"#utility.yul\":3398:3402   */\n      0x20\n        /* \"#utility.yul\":3392:3396   */\n      dup2\n        /* \"#utility.yul\":3388:3403   */\n      add\n        /* \"#utility.yul\":3380:3403   */\n      swap1\n      pop\n        /* \"#utility.yul\":3102:3410   */\n      swap2\n      swap1\n      pop\n      jump\t// out\n        /* \"#utility.yul\":3416:3515   */\n    tag_80:\n        /* \"#utility.yul\":3468:3474   */\n      0x00\n        /* \"#utility.yul\":3502:3507   */\n      dup2\n        /* \"#utility.yul\":3496:3508   */\n      mload\n        /* \"#utility.yul\":3486:3508   */\n      swap1\n      pop\n        /* \"#utility.yul\":3416:3515   */\n      swap2\n      swap1\n      pop\n      jump\t// out\n        /* \"#utility.yul\":3521:3690   */\n    tag_82:\n        /* \"#utility.yul\":3605:3616   */\n      0x00\n        /* \"#utility.yul\":3639:3645   */\n      dup3\n        /* \"#utility.yul\":3634:3637   */\n      dup3\n        /* \"#utility.yul\":3627:3646   */\n      mstore\n        /* \"#utility.yul\":3679:3683   */\n      0x20\n        /* \"#utility.yul\":3674:3677   */\n      dup3\n        /* \"#utility.yul\":3670:3684   */\n      add\n        /* \"#utility.yul\":3655:3684   */\n      swap1\n      pop\n        /* \"#utility.yul\":3521:3690   */\n      swap3\n      swap2\n      pop\n      pop\n      jump\t// out\n        /* \"#utility.yul\":3696:3773   */\n    tag_89:\n        /* \"#utility.yul\":3733:3740   */\n      0x00\n        /* \"#utility.yul\":3762:3767   */\n      dup2\n        /* \"#utility.yul\":3751:3767   */\n      swap1\n      pop\n        /* \"#utility.yul\":3696:3773   */\n      swap2\n      swap1\n      pop\n      jump\t// out\n        /* \"#utility.yul\":3779:4086   */\n    tag_54:\n        /* \"#utility.yul\":3847:3848   */\n      0x00\n        /* \"#utility.yul\":3857:3970   */\n    tag_109:\n        /* \"#utility.yul\":3871:3877   */\n      dup4\n        /* \"#utility.yul\":3868:3869   */\n      dup2\n        /* \"#utility.yul\":3865:3878   */\n      lt\n        /* \"#utility.yul\":3857:3970   */\n      iszero\n      tag_111\n      jumpi\n        /* \"#utility.yul\":3956:3957   */\n      dup1\n        /* \"#utility.yul\":3951:3954   */\n      dup3\n        /* \"#utility.yul\":3947:3958   */\n      add\n        /* \"#utility.yul\":3941:3959   */\n      mload\n        /* \"#utility.yul\":3937:3938   */\n      dup2\n        /* \"#utility.yul\":3932:3935   */\n      dup5\n        /* \"#utility.yul\":3928:3939   */\n      add\n        /* \"#utility.yul\":3921:3960   */\n      mstore\n        /* \"#utility.yul\":3893:3895   */\n      0x20\n        /* \"#utility.yul\":3890:3891   */\n      dup2\n        /* \"#utility.yul\":3886:3896   */\n      add\n        /* \"#utility.yul\":3881:3896   */\n      swap1\n      pop\n        /* \"#utility.yul\":3857:3970   */\n      jump(tag_109)\n    tag_111:\n        /* \"#utility.yul\":3988:3994   */\n      dup4\n        /* \"#utility.yul\":3985:3986   */\n      dup2\n        /* \"#utility.yul\":3982:3995   */\n      gt\n        /* \"#utility.yul\":3979:4080   */\n      iszero\n      tag_112\n      jumpi\n        /* \"#utility.yul\":4068:4069   */\n      0x00\n        /* \"#utility.yul\":4059:4065   */\n      dup5\n        /* \"#utility.yul\":4054:4057   */\n      dup5\n        /* \"#utility.yul\":4050:4066   */\n      add\n        /* \"#utility.yul\":4043:4070   */\n      mstore\n        /* \"#utility.yul\":3979:4080   */\n    tag_112:\n        /* \"#utility.yul\":3828:4086   */\n      pop\n        /* \"#utility.yul\":3779:4086   */\n      pop\n      pop\n      pop\n      jump\t// out\n        /* \"#utility.yul\":4092:4373   */\n    tag_98:\n        /* \"#utility.yul\":4175:4202   */\n      tag_114\n        /* \"#utility.yul\":4197:4201   */\n      dup3\n        /* \"#utility.yul\":4175:4202   */\n      tag_85\n      jump\t// in\n    tag_114:\n        /* \"#utility.yul\":4167:4173   */\n      dup2\n        /* \"#utility.yul\":4163:4203   */\n      add\n        /* \"#utility.yul\":4305:4311   */\n      dup2\n        /* \"#utility.yul\":4293:4303   */\n      dup2\n        /* \"#utility.yul\":4290:4312   */\n      lt\n        /* \"#utility.yul\":4269:4287   */\n      0xffffffffffffffff\n        /* \"#utility.yul\":4257:4267   */\n      dup3\n        /* \"#utility.yul\":4254:4288   */\n      gt\n        /* \"#utility.yul\":4251:4313   */\n      or\n        /* \"#utility.yul\":4248:4336   */\n      iszero\n      tag_115\n      jumpi\n        /* \"#utility.yul\":4316:4334   */\n      tag_116\n      tag_103\n      jump\t// in\n    tag_116:\n        /* \"#utility.yul\":4248:4336   */\n    tag_115:\n        /* \"#utility.yul\":4356:4366   */\n      dup1\n        /* \"#utility.yul\":4352:4354   */\n      0x40\n        /* \"#utility.yul\":4345:4367   */\n      mstore\n        /* \"#utility.yul\":4135:4373   */\n      pop\n        /* \"#utility.yul\":4092:4373   */\n      pop\n      pop\n      jump\t// out\n        /* \"#utility.yul\":4379:4559   */\n    tag_103:\n        /* \"#utility.yul\":4427:4504   */\n      0x4e487b7100000000000000000000000000000000000000000000000000000000\n        /* \"#utility.yul\":4424:4425   */\n      0x00\n        /* \"#utility.yul\":4417:4505   */\n      mstore\n        /* \"#utility.yul\":4524:4528   */\n      0x41\n        /* \"#utility.yul\":4521:4522   */\n      0x04\n        /* \"#utility.yul\":4514:4529   */\n      mstore\n        /* \"#utility.yul\":4548:4552   */\n      0x24\n        /* \"#utility.yul\":4545:4546   */\n      0x00\n        /* \"#utility.yul\":4538:4553   */\n      revert\n        /* \"#utility.yul\":4565:4682   */\n    tag_59:\n        /* \"#utility.yul\":4674:4675   */\n      0x00\n        /* \"#utility.yul\":4671:4672   */\n      dup1\n        /* \"#utility.yul\":4664:4676   */\n      revert\n        /* \"#utility.yul\":4688:4805   */\n    tag_52:\n        /* \"#utility.yul\":4797:4798   */\n      0x00\n        /* \"#utility.yul\":4794:4795   */\n      dup1\n        /* \"#utility.yul\":4787:4799   */\n      revert\n        /* \"#utility.yul\":4811:4928   */\n    tag_71:\n        /* \"#utility.yul\":4920:4921   */\n      0x00\n        /* \"#utility.yul\":4917:4918   */\n      dup1\n        /* \"#utility.yul\":4910:4922   */\n      revert\n        /* \"#utility.yul\":4934:5051   */\n    tag_68:\n        /* \"#utility.yul\":5043:5044   */\n      0x00\n        /* \"#utility.yul\":5040:5041   */\n      dup1\n        /* \"#utility.yul\":5033:5045   */\n      revert\n        /* \"#utility.yul\":5057:5159   */\n    tag_85:\n        /* \"#utility.yul\":5098:5104   */\n      0x00\n        /* \"#utility.yul\":5149:5151   */\n      0x1f\n        /* \"#utility.yul\":5145:5152   */\n      not\n        /* \"#utility.yul\":5140:5142   */\n      0x1f\n        /* \"#utility.yul\":5133:5138   */\n      dup4\n        /* \"#utility.yul\":5129:5143   */\n      add\n        /* \"#utility.yul\":5125:5153   */\n      and\n        /* \"#utility.yul\":5115:5153   */\n      swap1\n      pop\n        /* \"#utility.yul\":5057:5159   */\n      swap2\n      swap1\n      pop\n      jump\t// out\n        /* \"#utility.yul\":5165:5287   */\n    tag_64:\n        /* \"#utility.yul\":5238:5262   */\n      tag_124\n        /* \"#utility.yul\":5256:5261   */\n      dup2\n        /* \"#utility.yul\":5238:5262   */\n      tag_89\n      jump\t// in\n    tag_124:\n        /* \"#utility.yul\":5231:5236   */\n      dup2\n        /* \"#utility.yul\":5228:5263   */\n      eq\n        /* \"#utility.yul\":5218:5281   */\n      tag_125\n      jumpi\n        /* \"#utility.yul\":5277:5278   */\n      0x00\n        /* \"#utility.yul\":5274:5275   */\n      dup1\n        /* \"#utility.yul\":5267:5279   */\n      revert\n        /* \"#utility.yul\":5218:5281   */\n    tag_125:\n        /* \"#utility.yul\":5165:5287   */\n      pop\n      jump\t// out\n\n    auxdata: 0xa2646970667358221220eb2e35ed8a3c0610afaf1b1b6da49a3a0e398842056bd72065bdea0322da737d64736f6c63430008070033\n}\n",
				"bytecode": {
					"linkReferences": {},
					"object": "608060405234801561001057600080fd5b50610638806100206000396000f3fe608060405234801561001057600080fd5b506004361061004c5760003560e01c806317d7de7c1461005157806319efb11d1461006f578063967e6e651461008d578063ca04c834146100ab575b600080fd5b6100596100c9565b604051610066919061047a565b60405180910390f35b610077610167565b604051610084919061049c565b60405180910390f35b610095610200565b6040516100a2919061049c565b60405180910390f35b6100b3610299565b6040516100c0919061047a565b60405180910390f35b606073da0bab807633f07f013f94dd0e6a4f96f8742b5373ffffffffffffffffffffffffffffffffffffffff166317d7de7c6040518163ffffffff1660e01b815260040160006040518083038186803b15801561012557600080fd5b505afa158015610139573d6000803e3d6000fd5b505050506040513d6000823e3d601f19601f8201168201806040525081019061016291906103bc565b905090565b600073da0bab807633f07f013f94dd0e6a4f96f8742b5373ffffffffffffffffffffffffffffffffffffffff166319efb11d6040518163ffffffff1660e01b815260040160206040518083038186803b1580156101c357600080fd5b505afa1580156101d7573d6000803e3d6000fd5b505050506040513d601f19601f820116820180604052508101906101fb9190610405565b905090565b600073da0bab807633f07f013f94dd0e6a4f96f8742b5373ffffffffffffffffffffffffffffffffffffffff1663967e6e656040518163ffffffff1660e01b815260040160206040518083038186803b15801561025c57600080fd5b505afa158015610270573d6000803e3d6000fd5b505050506040513d601f19601f820116820180604052508101906102949190610405565b905090565b606073da0bab807633f07f013f94dd0e6a4f96f8742b5373ffffffffffffffffffffffffffffffffffffffff1663ca04c8346040518163ffffffff1660e01b815260040160006040518083038186803b1580156102f557600080fd5b505afa158015610309573d6000803e3d6000fd5b505050506040513d6000823e3d601f19601f8201168201806040525081019061033291906103bc565b905090565b600061034a610345846104dc565b6104b7565b905082815260208101848484011115610366576103656105cb565b5b610371848285610533565b509392505050565b600082601f83011261038e5761038d6105c6565b5b815161039e848260208601610337565b91505092915050565b6000815190506103b6816105eb565b92915050565b6000602082840312156103d2576103d16105d5565b5b600082015167ffffffffffffffff8111156103f0576103ef6105d0565b5b6103fc84828501610379565b91505092915050565b60006020828403121561041b5761041a6105d5565b5b6000610429848285016103a7565b91505092915050565b600061043d8261050d565b6104478185610518565b9350610457818560208601610533565b610460816105da565b840191505092915050565b61047481610529565b82525050565b600060208201905081810360008301526104948184610432565b905092915050565b60006020820190506104b1600083018461046b565b92915050565b60006104c16104d2565b90506104cd8282610566565b919050565b6000604051905090565b600067ffffffffffffffff8211156104f7576104f6610597565b5b610500826105da565b9050602081019050919050565b600081519050919050565b600082825260208201905092915050565b6000819050919050565b60005b83811015610551578082015181840152602081019050610536565b83811115610560576000848401525b50505050565b61056f826105da565b810181811067ffffffffffffffff8211171561058e5761058d610597565b5b80604052505050565b7f4e487b7100000000000000000000000000000000000000000000000000000000600052604160045260246000fd5b600080fd5b600080fd5b600080fd5b600080fd5b6000601f19601f8301169050919050565b6105f481610529565b81146105ff57600080fd5b5056fea2646970667358221220eb2e35ed8a3c0610afaf1b1b6da49a3a0e398842056bd72065bdea0322da737d64736f6c63430008070033",
					"opcodes": "PUSH1 0x80 PUSH1 0x40 MSTORE CALLVALUE DUP1 ISZERO PUSH2 0x10 JUMPI PUSH1 0x0 DUP1 REVERT JUMPDEST POP PUSH2 0x638 DUP1 PUSH2 0x20 PUSH1 0x0 CODECOPY PUSH1 0x0 RETURN INVALID PUSH1 0x80 PUSH1 0x40 MSTORE CALLVALUE DUP1 ISZERO PUSH2 0x10 JUMPI PUSH1 0x0 DUP1 REVERT JUMPDEST POP PUSH1 0x4 CALLDATASIZE LT PUSH2 0x4C JUMPI PUSH1 0x0 CALLDATALOAD PUSH1 0xE0 SHR DUP1 PUSH4 0x17D7DE7C EQ PUSH2 0x51 JUMPI DUP1 PUSH4 0x19EFB11D EQ PUSH2 0x6F JUMPI DUP1 PUSH4 0x967E6E65 EQ PUSH2 0x8D JUMPI DUP1 PUSH4 0xCA04C834 EQ PUSH2 0xAB JUMPI JUMPDEST PUSH1 0x0 DUP1 REVERT JUMPDEST PUSH2 0x59 PUSH2 0xC9 JUMP JUMPDEST PUSH1 0x40 MLOAD PUSH2 0x66 SWAP2 SWAP1 PUSH2 0x47A JUMP JUMPDEST PUSH1 0x40 MLOAD DUP1 SWAP2 SUB SWAP1 RETURN JUMPDEST PUSH2 0x77 PUSH2 0x167 JUMP JUMPDEST PUSH1 0x40 MLOAD PUSH2 0x84 SWAP2 SWAP1 PUSH2 0x49C JUMP JUMPDEST PUSH1 0x40 MLOAD DUP1 SWAP2 SUB SWAP1 RETURN JUMPDEST PUSH2 0x95 PUSH2 0x200 JUMP JUMPDEST PUSH1 0x40 MLOAD PUSH2 0xA2 SWAP2 SWAP1 PUSH2 0x49C JUMP JUMPDEST PUSH1 0x40 MLOAD DUP1 SWAP2 SUB SWAP1 RETURN JUMPDEST PUSH2 0xB3 PUSH2 0x299 JUMP JUMPDEST PUSH1 0x40 MLOAD PUSH2 0xC0 SWAP2 SWAP1 PUSH2 0x47A JUMP JUMPDEST PUSH1 0x40 MLOAD DUP1 SWAP2 SUB SWAP1 RETURN JUMPDEST PUSH1 0x60 PUSH20 0xDA0BAB807633F07F013F94DD0E6A4F96F8742B53 PUSH20 0xFFFFFFFFFFFFFFFFFFFFFFFFFFFFFFFFFFFFFFFF AND PUSH4 0x17D7DE7C PUSH1 0x40 MLOAD DUP2 PUSH4 0xFFFFFFFF AND PUSH1 0xE0 SHL DUP2 MSTORE PUSH1 0x4 ADD PUSH1 0x0 PUSH1 0x40 MLOAD DUP1 DUP4 SUB DUP2 DUP7 DUP1 EXTCODESIZE ISZERO DUP1 ISZERO PUSH2 0x125 JUMPI PUSH1 0x0 DUP1 REVERT JUMPDEST POP GAS STATICCALL ISZERO DUP1 ISZERO PUSH2 0x139 JUMPI RETURNDATASIZE PUSH1 0x0 DUP1 RETURNDATACOPY RETURNDATASIZE PUSH1 0x0 REVERT JUMPDEST POP POP POP POP PUSH1 0x40 MLOAD RETURNDATASIZE PUSH1 0x0 DUP3 RETURNDATACOPY RETURNDATASIZE PUSH1 0x1F NOT PUSH1 0x1F DUP3 ADD AND DUP3 ADD DUP1 PUSH1 0x40 MSTORE POP DUP2 ADD SWAP1 PUSH2 0x162 SWAP2 SWAP1 PUSH2 0x3BC JUMP JUMPDEST SWAP1 POP SWAP1 JUMP JUMPDEST PUSH1 0x0 PUSH20 0xDA0BAB807633F07F013F94DD0E6A4F96F8742B53 PUSH20 0xFFFFFFFFFFFFFFFFFFFFFFFFFFFFFFFFFFFFFFFF AND PUSH4 0x19EFB11D PUSH1 0x40 MLOAD DUP2 PUSH4 0xFFFFFFFF AND PUSH1 0xE0 SHL DUP2 MSTORE PUSH1 0x4 ADD PUSH1 0x20 PUSH1 0x40 MLOAD DUP1 DUP4 SUB DUP2 DUP7 DUP1 EXTCODESIZE ISZERO DUP1 ISZERO PUSH2 0x1C3 JUMPI PUSH1 0x0 DUP1 REVERT JUMPDEST POP GAS STATICCALL ISZERO DUP1 ISZERO PUSH2 0x1D7 JUMPI RETURNDATASIZE PUSH1 0x0 DUP1 RETURNDATACOPY RETURNDATASIZE PUSH1 0x0 REVERT JUMPDEST POP POP POP POP PUSH1 0x40 MLOAD RETURNDATASIZE PUSH1 0x1F NOT PUSH1 0x1F DUP3 ADD AND DUP3 ADD DUP1 PUSH1 0x40 MSTORE POP DUP2 ADD SWAP1 PUSH2 0x1FB SWAP2 SWAP1 PUSH2 0x405 JUMP JUMPDEST SWAP1 POP SWAP1 JUMP JUMPDEST PUSH1 0x0 PUSH20 0xDA0BAB807633F07F013F94DD0E6A4F96F8742B53 PUSH20 0xFFFFFFFFFFFFFFFFFFFFFFFFFFFFFFFFFFFFFFFF AND PUSH4 0x967E6E65 PUSH1 0x40 MLOAD DUP2 PUSH4 0xFFFFFFFF AND PUSH1 0xE0 SHL DUP2 MSTORE PUSH1 0x4 ADD PUSH1 0x20 PUSH1 0x40 MLOAD DUP1 DUP4 SUB DUP2 DUP7 DUP1 EXTCODESIZE ISZERO DUP1 ISZERO PUSH2 0x25C JUMPI PUSH1 0x0 DUP1 REVERT JUMPDEST POP GAS STATICCALL ISZERO DUP1 ISZERO PUSH2 0x270 JUMPI RETURNDATASIZE PUSH1 0x0 DUP1 RETURNDATACOPY RETURNDATASIZE PUSH1 0x0 REVERT JUMPDEST POP POP POP POP PUSH1 0x40 MLOAD RETURNDATASIZE PUSH1 0x1F NOT PUSH1 0x1F DUP3 ADD AND DUP3 ADD DUP1 PUSH1 0x40 MSTORE POP DUP2 ADD SWAP1 PUSH2 0x294 SWAP2 SWAP1 PUSH2 0x405 JUMP JUMPDEST SWAP1 POP SWAP1 JUMP JUMPDEST PUSH1 0x60 PUSH20 0xDA0BAB807633F07F013F94DD0E6A4F96F8742B53 PUSH20 0xFFFFFFFFFFFFFFFFFFFFFFFFFFFFFFFFFFFFFFFF AND PUSH4 0xCA04C834 PUSH1 0x40 MLOAD DUP2 PUSH4 0xFFFFFFFF AND PUSH1 0xE0 SHL DUP2 MSTORE PUSH1 0x4 ADD PUSH1 0x0 PUSH1 0x40 MLOAD DUP1 DUP4 SUB DUP2 DUP7 DUP1 EXTCODESIZE ISZERO DUP1 ISZERO PUSH2 0x2F5 JUMPI PUSH1 0x0 DUP1 REVERT JUMPDEST POP GAS STATICCALL ISZERO DUP1 ISZERO PUSH2 0x309 JUMPI RETURNDATASIZE PUSH1 0x0 DUP1 RETURNDATACOPY RETURNDATASIZE PUSH1 0x0 REVERT JUMPDEST POP POP POP POP PUSH1 0x40 MLOAD RETURNDATASIZE PUSH1 0x0 DUP3 RETURNDATACOPY RETURNDATASIZE PUSH1 0x1F NOT PUSH1 0x1F DUP3 ADD AND DUP3 ADD DUP1 PUSH1 0x40 MSTORE POP DUP2 ADD SWAP1 PUSH2 0x332 SWAP2 SWAP1 PUSH2 0x3BC JUMP JUMPDEST SWAP1 POP SWAP1 JUMP JUMPDEST PUSH1 0x0 PUSH2 0x34A PUSH2 0x345 DUP5 PUSH2 0x4DC JUMP JUMPDEST PUSH2 0x4B7 JUMP JUMPDEST SWAP1 POP DUP3 DUP2 MSTORE PUSH1 0x20 DUP2 ADD DUP5 DUP5 DUP5 ADD GT ISZERO PUSH2 0x366 JUMPI PUSH2 0x365 PUSH2 0x5CB JUMP JUMPDEST JUMPDEST PUSH2 0x371 DUP5 DUP3 DUP6 PUSH2 0x533 JUMP JUMPDEST POP SWAP4 SWAP3 POP POP POP JUMP JUMPDEST PUSH1 0x0 DUP3 PUSH1 0x1F DUP4 ADD SLT PUSH2 0x38E JUMPI PUSH2 0x38D PUSH2 0x5C6 JUMP JUMPDEST JUMPDEST DUP2 MLOAD PUSH2 0x39E DUP5 DUP3 PUSH1 0x20 DUP7 ADD PUSH2 0x337 JUMP JUMPDEST SWAP2 POP POP SWAP3 SWAP2 POP POP JUMP JUMPDEST PUSH1 0x0 DUP2 MLOAD SWAP1 POP PUSH2 0x3B6 DUP2 PUSH2 0x5EB JUMP JUMPDEST SWAP3 SWAP2 POP POP JUMP JUMPDEST PUSH1 0x0 PUSH1 0x20 DUP3 DUP5 SUB SLT ISZERO PUSH2 0x3D2 JUMPI PUSH2 0x3D1 PUSH2 0x5D5 JUMP JUMPDEST JUMPDEST PUSH1 0x0 DUP3 ADD MLOAD PUSH8 0xFFFFFFFFFFFFFFFF DUP2 GT ISZERO PUSH2 0x3F0 JUMPI PUSH2 0x3EF PUSH2 0x5D0 JUMP JUMPDEST JUMPDEST PUSH2 0x3FC DUP5 DUP3 DUP6 ADD PUSH2 0x379 JUMP JUMPDEST SWAP2 POP POP SWAP3 SWAP2 POP POP JUMP JUMPDEST PUSH1 0x0 PUSH1 0x20 DUP3 DUP5 SUB SLT ISZERO PUSH2 0x41B JUMPI PUSH2 0x41A PUSH2 0x5D5 JUMP JUMPDEST JUMPDEST PUSH1 0x0 PUSH2 0x429 DUP5 DUP3 DUP6 ADD PUSH2 0x3A7 JUMP JUMPDEST SWAP2 POP POP SWAP3 SWAP2 POP POP JUMP JUMPDEST PUSH1 0x0 PUSH2 0x43D DUP3 PUSH2 0x50D JUMP JUMPDEST PUSH2 0x447 DUP2 DUP6 PUSH2 0x518 JUMP JUMPDEST SWAP4 POP PUSH2 0x457 DUP2 DUP6 PUSH1 0x20 DUP7 ADD PUSH2 0x533 JUMP JUMPDEST PUSH2 0x460 DUP2 PUSH2 0x5DA JUMP JUMPDEST DUP5 ADD SWAP2 POP POP SWAP3 SWAP2 POP POP JUMP JUMPDEST PUSH2 0x474 DUP2 PUSH2 0x529 JUMP JUMPDEST DUP3 MSTORE POP POP JUMP JUMPDEST PUSH1 0x0 PUSH1 0x20 DUP3 ADD SWAP1 POP DUP2 DUP2 SUB PUSH1 0x0 DUP4 ADD MSTORE PUSH2 0x494 DUP2 DUP5 PUSH2 0x432 JUMP JUMPDEST SWAP1 POP SWAP3 SWAP2 POP POP JUMP JUMPDEST PUSH1 0x0 PUSH1 0x20 DUP3 ADD SWAP1 POP PUSH2 0x4B1 PUSH1 0x0 DUP4 ADD DUP5 PUSH2 0x46B JUMP JUMPDEST SWAP3 SWAP2 POP POP JUMP JUMPDEST PUSH1 0x0 PUSH2 0x4C1 PUSH2 0x4D2 JUMP JUMPDEST SWAP1 POP PUSH2 0x4CD DUP3 DUP3 PUSH2 0x566 JUMP JUMPDEST SWAP2 SWAP1 POP JUMP JUMPDEST PUSH1 0x0 PUSH1 0x40 MLOAD SWAP1 POP SWAP1 JUMP JUMPDEST PUSH1 0x0 PUSH8 0xFFFFFFFFFFFFFFFF DUP3 GT ISZERO PUSH2 0x4F7 JUMPI PUSH2 0x4F6 PUSH2 0x597 JUMP JUMPDEST JUMPDEST PUSH2 0x500 DUP3 PUSH2 0x5DA JUMP JUMPDEST SWAP1 POP PUSH1 0x20 DUP2 ADD SWAP1 POP SWAP2 SWAP1 POP JUMP JUMPDEST PUSH1 0x0 DUP2 MLOAD SWAP1 POP SWAP2 SWAP1 POP JUMP JUMPDEST PUSH1 0x0 DUP3 DUP3 MSTORE PUSH1 0x20 DUP3 ADD SWAP1 POP SWAP3 SWAP2 POP POP JUMP JUMPDEST PUSH1 0x0 DUP2 SWAP1 POP SWAP2 SWAP1 POP JUMP JUMPDEST PUSH1 0x0 JUMPDEST DUP4 DUP2 LT ISZERO PUSH2 0x551 JUMPI DUP1 DUP3 ADD MLOAD DUP2 DUP5 ADD MSTORE PUSH1 0x20 DUP2 ADD SWAP1 POP PUSH2 0x536 JUMP JUMPDEST DUP4 DUP2 GT ISZERO PUSH2 0x560 JUMPI PUSH1 0x0 DUP5 DUP5 ADD MSTORE JUMPDEST POP POP POP POP JUMP JUMPDEST PUSH2 0x56F DUP3 PUSH2 0x5DA JUMP JUMPDEST DUP2 ADD DUP2 DUP2 LT PUSH8 0xFFFFFFFFFFFFFFFF DUP3 GT OR ISZERO PUSH2 0x58E JUMPI PUSH2 0x58D PUSH2 0x597 JUMP JUMPDEST JUMPDEST DUP1 PUSH1 0x40 MSTORE POP POP POP JUMP JUMPDEST PUSH32 0x4E487B7100000000000000000000000000000000000000000000000000000000 PUSH1 0x0 MSTORE PUSH1 0x41 PUSH1 0x4 MSTORE PUSH1 0x24 PUSH1 0x0 REVERT JUMPDEST PUSH1 0x0 DUP1 REVERT JUMPDEST PUSH1 0x0 DUP1 REVERT JUMPDEST PUSH1 0x0 DUP1 REVERT JUMPDEST PUSH1 0x0 DUP1 REVERT JUMPDEST PUSH1 0x0 PUSH1 0x1F NOT PUSH1 0x1F DUP4 ADD AND SWAP1 POP SWAP2 SWAP1 POP JUMP JUMPDEST PUSH2 0x5F4 DUP2 PUSH2 0x529 JUMP JUMPDEST DUP2 EQ PUSH2 0x5FF JUMPI PUSH1 0x0 DUP1 REVERT JUMPDEST POP JUMP INVALID LOG2 PUSH5 0x6970667358 0x22 SLT KECCAK256 0xEB 0x2E CALLDATALOAD 0xED DUP11 EXTCODECOPY MOD LT 0xAF 0xAF SHL SHL PUSH14 0xA49A3A0E398842056BD72065BDEA SUB 0x22 0xDA PUSH20 0x7D64736F6C634300080700330000000000000000 "
				},
				"gasEstimates": {
					"creation": {
						"codeDepositCost": "318400",
						"executionCost": "355",
						"totalCost": "318755"
					},
					"external": {
						"getAge()": "infinite",
						"getCar()": "infinite",
						"getHeight()": "infinite",
						"getName()": "infinite"
					}
				},
				"methodIdentifiers": {
					"getAge()": "967e6e65",
					"getCar()": "ca04c834",
					"getHeight()": "19efb11d",
					"getName()": "17d7de7c"
				}
			},
			"storageLayout": {
				"storage": [],
				"types": null
			},
			"userdoc": {
				"kind": "user",
				"methods": {},
				"version": 1
			}
		}
	}
}